{
  "_format": "hh-sol-artifact-1",
  "contractName": "RaffleFactory",
  "sourceName": "contracts/RaffleFactory.sol",
  "abi": [
    {
      "inputs": [],
      "stateMutability": "nonpayable",
      "type": "constructor"
    },
    {
      "anonymous": false,
      "inputs": [
        {
          "indexed": true,
          "internalType": "address",
          "name": "raffleAddress",
          "type": "address"
        },
        {
          "indexed": true,
          "internalType": "address",
          "name": "organizer",
          "type": "address"
        }
      ],
      "name": "RaffleCreated",
      "type": "event"
    },
    {
      "stateMutability": "payable",
      "type": "fallback"
    },
    {
      "inputs": [
        {
          "internalType": "uint256",
          "name": "_totalTickets",
          "type": "uint256"
        },
        {
          "internalType": "uint256",
          "name": "_ticketPrice",
          "type": "uint256"
        },
        {
          "internalType": "uint256",
          "name": "_percentageThreshold",
          "type": "uint256"
        }
      ],
      "name": "createRaffle",
      "outputs": [],
      "stateMutability": "nonpayable",
      "type": "function"
    },
    {
      "inputs": [],
      "name": "getRaffles",
      "outputs": [
        {
          "internalType": "contract Raffle[]",
          "name": "",
          "type": "address[]"
        }
      ],
      "stateMutability": "view",
      "type": "function"
    },
    {
      "inputs": [
        {
          "internalType": "address",
          "name": "raffleAddress",
          "type": "address"
        }
      ],
      "name": "isRaffleValid",
      "outputs": [
        {
          "internalType": "bool",
          "name": "",
          "type": "bool"
        }
      ],
      "stateMutability": "view",
      "type": "function"
    },
    {
      "inputs": [],
      "name": "owner",
      "outputs": [
        {
          "internalType": "address",
          "name": "",
          "type": "address"
        }
      ],
      "stateMutability": "view",
      "type": "function"
    },
    {
      "inputs": [
        {
          "internalType": "uint256",
          "name": "",
          "type": "uint256"
        }
      ],
      "name": "raffles",
      "outputs": [
        {
          "internalType": "contract Raffle",
          "name": "",
          "type": "address"
        }
      ],
      "stateMutability": "view",
      "type": "function"
    },
    {
      "stateMutability": "payable",
      "type": "receive"
    }
  ],
  "bytecode": "0x608060405234801561001057600080fd5b50336000806101000a81548173ffffffffffffffffffffffffffffffffffffffff021916908373ffffffffffffffffffffffffffffffffffffffff160217905550612fd8806100606000396000f3fe608060405260043610620000555760003560e01c8063239bb59a14620000d55780634a20dd6a14620001035780635d4bc0ce14620001475780638da5cb5b146200018b578063a18723c514620001bb5762000098565b3662000098576040517f08c379a00000000000000000000000000000000000000000000000000000000081526004016200008f90620008ef565b60405180910390fd5b6040517f08c379a0000000000000000000000000000000000000000000000000000000008152600401620000cc9062000977565b60405180910390fd5b348015620000e257600080fd5b50620001016004803603810190620000fb919062000635565b620001eb565b005b3480156200011057600080fd5b506200012f6004803603810190620001299190620005dd565b620003d1565b6040516200013e9190620008b5565b60405180910390f35b3480156200015457600080fd5b506200017360048036038101906200016d919062000609565b620004ad565b604051620001829190620008d2565b60405180910390f35b3480156200019857600080fd5b50620001a3620004ed565b604051620001b2919062000827565b60405180910390f35b348015620001c857600080fd5b50620001d362000511565b604051620001e2919062000891565b60405180910390f35b6000831162000231576040517f08c379a0000000000000000000000000000000000000000000000000000000008152600401620002289062000911565b60405180910390fd5b6000821162000277576040517f08c379a00000000000000000000000000000000000000000000000000000000081526004016200026e9062000933565b60405180910390fd5b60008111801562000289575060648111155b620002cb576040517f08c379a0000000000000000000000000000000000000000000000000000000008152600401620002c29062000955565b60405180910390fd5b600033848484604051620002df90620005a1565b620002ee949392919062000844565b604051809103906000f0801580156200030b573d6000803e3d6000fd5b5090506001819080600181540180825580915050600190039060005260206000200160009091909190916101000a81548173ffffffffffffffffffffffffffffffffffffffff021916908373ffffffffffffffffffffffffffffffffffffffff1602179055503373ffffffffffffffffffffffffffffffffffffffff168173ffffffffffffffffffffffffffffffffffffffff167f9c47a29f5025e2caaa94993068aa476939fb2a69f283de301e96ce91e46e0c5160405160405180910390a350505050565b600080600090505b600180549050811015620004a2578273ffffffffffffffffffffffffffffffffffffffff166001828154811062000439577f4e487b7100000000000000000000000000000000000000000000000000000000600052603260045260246000fd5b9060005260206000200160009054906101000a900473ffffffffffffffffffffffffffffffffffffffff1673ffffffffffffffffffffffffffffffffffffffff1614156200048c576001915050620004a8565b8080620004999062000a55565b915050620003d9565b50600090505b919050565b60018181548110620004be57600080fd5b906000526020600020016000915054906101000a900473ffffffffffffffffffffffffffffffffffffffff1681565b60008054906101000a900473ffffffffffffffffffffffffffffffffffffffff1681565b606060018054806020026020016040519081016040528092919081815260200182805480156200059757602002820191906000526020600020905b8160009054906101000a900473ffffffffffffffffffffffffffffffffffffffff1673ffffffffffffffffffffffffffffffffffffffff16815260200190600101908083116200054c575b5050505050905090565b61235d8062000c4683390190565b600081359050620005c08162000c11565b92915050565b600081359050620005d78162000c2b565b92915050565b600060208284031215620005f057600080fd5b60006200060084828501620005af565b91505092915050565b6000602082840312156200061c57600080fd5b60006200062c84828501620005c6565b91505092915050565b6000806000606084860312156200064b57600080fd5b60006200065b86828701620005c6565b93505060206200066e86828701620005c6565b92505060406200068186828701620005c6565b9150509250925092565b600062000699838362000731565b60208301905092915050565b620006b081620009e3565b82525050565b6000620006c382620009a9565b620006cf8185620009c1565b9350620006dc8362000999565b8060005b8381101562000713578151620006f788826200068b565b97506200070483620009b4565b925050600181019050620006e0565b5085935050505092915050565b6200072b81620009f7565b82525050565b6200073c8162000a2d565b82525050565b6200074d8162000a2d565b82525050565b600062000762601c83620009d2565b91506200076f8262000ad2565b602082019050919050565b600062000789602c83620009d2565b9150620007968262000afb565b604082019050919050565b6000620007b0602a83620009d2565b9150620007bd8262000b4a565b604082019050919050565b6000620007d7602583620009d2565b9150620007e48262000b99565b604082019050919050565b6000620007fe601483620009d2565b91506200080b8262000be8565b602082019050919050565b620008218162000a23565b82525050565b60006020820190506200083e6000830184620006a5565b92915050565b60006080820190506200085b6000830187620006a5565b6200086a602083018662000816565b62000879604083018562000816565b62000888606083018462000816565b95945050505050565b60006020820190508181036000830152620008ad8184620006b6565b905092915050565b6000602082019050620008cc600083018462000720565b92915050565b6000602082019050620008e9600083018462000742565b92915050565b600060208201905081810360008301526200090a8162000753565b9050919050565b600060208201905081810360008301526200092c816200077a565b9050919050565b600060208201905081810360008301526200094e81620007a1565b9050919050565b600060208201905081810360008301526200097081620007c8565b9050919050565b600060208201905081810360008301526200099281620007ef565b9050919050565b6000819050602082019050919050565b600081519050919050565b6000602082019050919050565b600082825260208201905092915050565b600082825260208201905092915050565b6000620009f08262000a03565b9050919050565b60008115159050919050565b600073ffffffffffffffffffffffffffffffffffffffff82169050919050565b6000819050919050565b600062000a3a8262000a41565b9050919050565b600062000a4e8262000a03565b9050919050565b600062000a628262000a23565b91507fffffffffffffffffffffffffffffffffffffffffffffffffffffffffffffffff82141562000a985762000a9762000aa3565b5b600182019050919050565b7f4e487b7100000000000000000000000000000000000000000000000000000000600052601160045260246000fd5b7f4e616f20616365697461204574686572206469726574616d656e746500000000600082015250565b7f4f206e756d65726f2064652062696c6865746573206465766520736572206d6160008201527f696f7220717565207a65726f0000000000000000000000000000000000000000602082015250565b7f4f20707265636f20646f2062696c68657465206465766520736572206d61696f60008201527f7220717565207a65726f00000000000000000000000000000000000000000000602082015250565b7f4f2070657263656e7475616c206465766520657374617220656e74726520312060008201527f6520313030000000000000000000000000000000000000000000000000000000602082015250565b7f46756e63616f206e616f207375706f7274616461000000000000000000000000600082015250565b62000c1c81620009e3565b811462000c2857600080fd5b50565b62000c368162000a23565b811462000c4257600080fd5b5056fe60806040523480156200001157600080fd5b506040516200235d3803806200235d8339818101604052810190620000379190620002f5565b600073ffffffffffffffffffffffffffffffffffffffff168473ffffffffffffffffffffffffffffffffffffffff161415620000aa576040517f08c379a0000000000000000000000000000000000000000000000000000000008152600401620000a19062000474565b60405180910390fd5b60008311620000f0576040517f08c379a0000000000000000000000000000000000000000000000000000000008152600401620000e79062000430565b60405180910390fd5b6000821162000136576040517f08c379a00000000000000000000000000000000000000000000000000000000081526004016200012d9062000452565b60405180910390fd5b60008111801562000148575060648111155b6200018a576040517f08c379a000000000000000000000000000000000000000000000000000000000815260040162000181906200040e565b60405180910390fd5b836000806101000a81548173ffffffffffffffffffffffffffffffffffffffff021916908373ffffffffffffffffffffffffffffffffffffffff1602179055508260028190555081600181905550806005819055506001600460006101000a81548160ff0219169083151502179055506000600190505b8381116200024857600981908060018154018082558091505060019003906000526020600020016000909190919091505580806200023f9062000522565b91505062000201565b5060008054906101000a900473ffffffffffffffffffffffffffffffffffffffff1673ffffffffffffffffffffffffffffffffffffffff167fe04bb71afed468f7e46643605ebb2647d52369728ce9fb08f8d3b12c032cc089848484604051620002b59392919062000496565b60405180910390a250505050620006c3565b600081519050620002d8816200068f565b92915050565b600081519050620002ef81620006a9565b92915050565b600080600080608085870312156200030c57600080fd5b60006200031c87828801620002c7565b94505060206200032f87828801620002de565b93505060406200034287828801620002de565b92505060606200035587828801620002de565b91505092959194509250565b600062000370601383620004d3565b91506200037d826200059f565b602082019050919050565b600062000397602c83620004d3565b9150620003a482620005c8565b604082019050919050565b6000620003be602a83620004d3565b9150620003cb8262000617565b604082019050919050565b6000620003e5602083620004d3565b9150620003f28262000666565b602082019050919050565b620004088162000518565b82525050565b60006020820190508181036000830152620004298162000361565b9050919050565b600060208201905081810360008301526200044b8162000388565b9050919050565b600060208201905081810360008301526200046d81620003af565b9050919050565b600060208201905081810360008301526200048f81620003d6565b9050919050565b6000606082019050620004ad6000830186620003fd565b620004bc6020830185620003fd565b620004cb6040830184620003fd565b949350505050565b600082825260208201905092915050565b6000620004f182620004f8565b9050919050565b600073ffffffffffffffffffffffffffffffffffffffff82169050919050565b6000819050919050565b60006200052f8262000518565b91507fffffffffffffffffffffffffffffffffffffffffffffffffffffffffffffffff82141562000565576200056462000570565b5b600182019050919050565b7f4e487b7100000000000000000000000000000000000000000000000000000000600052601160045260246000fd5b7f50657263656e7475616c20696e76616c69646f00000000000000000000000000600082015250565b7f4f206e756d65726f2064652062696c6865746573206465766520736572206d6160008201527f696f7220717565207a65726f0000000000000000000000000000000000000000602082015250565b7f4f20707265636f20646f2062696c68657465206465766520736572206d61696f60008201527f7220717565207a65726f00000000000000000000000000000000000000000000602082015250565b7f456e64657265636f20646f206f7267616e697a61646f7220696e76616c69646f600082015250565b6200069a81620004e4565b8114620006a657600080fd5b50565b620006b48162000518565b8114620006c057600080fd5b50565b611c8a80620006d36000396000f3fe6080604052600436106100f75760003560e01c8063c26eea541161008a578063dfbf53ae11610059578063dfbf53ae1461038c578063dfcd0bbb146103b7578063e1d10d85146103f4578063ed1f47521461041f57610137565b8063c26eea54146102ce578063c3441646146102f9578063c83c79c614610324578063dd11247e1461036157610137565b806361203265116100c6578063612032651461023057806367dd74ca1461025b5780636cdb1624146102775780638f15024f146102a357610137565b80631209b1f61461017257806341676f151461019d5780634ea5b974146101da5780635a8acacc1461020557610137565b36610137576040517f08c379a000000000000000000000000000000000000000000000000000000000815260040161012e9061165d565b60405180910390fd5b6040517f08c379a0000000000000000000000000000000000000000000000000000000008152600401610169906116fd565b60405180910390fd5b34801561017e57600080fd5b50610187610448565b60405161019491906117bd565b60405180910390f35b3480156101a957600080fd5b506101c460048036038101906101bf91906112c4565b61044e565b6040516101d19190611642565b60405180910390f35b3480156101e657600080fd5b506101ef6104a7565b6040516101fc91906117bd565b60405180910390f35b34801561021157600080fd5b5061021a6104ad565b60405161022791906115e9565b60405180910390f35b34801561023c57600080fd5b50610245610505565b60405161025291906115ce565b60405180910390f35b610275600480360381019061027091906112ed565b610529565b005b34801561028357600080fd5b5061028c6107eb565b60405161029a92919061160b565b60405180910390f35b3480156102af57600080fd5b506102b8610afb565b6040516102c591906117bd565b60405180910390f35b3480156102da57600080fd5b506102e3610b01565b6040516102f091906117bd565b60405180910390f35b34801561030557600080fd5b5061030e610b07565b60405161031b9190611642565b60405180910390f35b34801561033057600080fd5b5061034b600480360381019061034691906112ed565b610b1a565b60405161035891906115ce565b60405180910390f35b34801561036d57600080fd5b50610376610b4d565b60405161038391906117bd565b60405180910390f35b34801561039857600080fd5b506103a1610b53565b6040516103ae91906115ce565b60405180910390f35b3480156103c357600080fd5b506103de60048036038101906103d991906112ed565b610b79565b6040516103eb91906117bd565b60405180910390f35b34801561040057600080fd5b50610409610b9d565b60405161041691906115e9565b60405180910390f35b34801561042b57600080fd5b50610446600480360381019061044191906112ed565b610cfd565b005b60015481565b60008060009054906101000a900473ffffffffffffffffffffffffffffffffffffffff1673ffffffffffffffffffffffffffffffffffffffff168273ffffffffffffffffffffffffffffffffffffffff16149050919050565b60055481565b606060098054806020026020016040519081016040528092919081815260200182805480156104fb57602002820191906000526020600020905b8154815260200190600101908083116104e7575b5050505050905090565b60008054906101000a900473ffffffffffffffffffffffffffffffffffffffff1681565b600460009054906101000a900460ff16610578576040517f08c379a000000000000000000000000000000000000000000000000000000000815260040161056f906116dd565b60405180910390fd5b60008111801561058a57506002548111155b6105c9576040517f08c379a00000000000000000000000000000000000000000000000000000000081526004016105c09061177d565b60405180910390fd5b600073ffffffffffffffffffffffffffffffffffffffff166008600083815260200190815260200160002060009054906101000a900473ffffffffffffffffffffffffffffffffffffffff1673ffffffffffffffffffffffffffffffffffffffff161461066b576040517f08c379a00000000000000000000000000000000000000000000000000000000081526004016106629061167d565b60405180910390fd5b60015434146106af576040517f08c379a00000000000000000000000000000000000000000000000000000000081526004016106a69061169d565b60405180910390fd5b6106b881610f9c565b6106f7576040517f08c379a00000000000000000000000000000000000000000000000000000000081526004016106ee9061179d565b60405180910390fd5b336008600083815260200190815260200160002060006101000a81548173ffffffffffffffffffffffffffffffffffffffff021916908373ffffffffffffffffffffffffffffffffffffffff1602179055506003600081548092919061075c9061198b565b919050555061076a81611025565b3373ffffffffffffffffffffffffffffffffffffffff167f0668f5b446eb814fe35b3206f43f14bd8567ba04ddaf7a3ee56516929ab22ccb826040516107b091906117bd565b60405180910390a260006107c261118a565b9050806003541015806107d9575060025460035410155b156107e7576107e66111dc565b5b5050565b60608060008054906101000a900473ffffffffffffffffffffffffffffffffffffffff1673ffffffffffffffffffffffffffffffffffffffff163373ffffffffffffffffffffffffffffffffffffffff161461087c576040517f08c379a00000000000000000000000000000000000000000000000000000000081526004016108739061171d565b60405180910390fd5b600060035467ffffffffffffffff8111156108c0577f4e487b7100000000000000000000000000000000000000000000000000000000600052604160045260246000fd5b6040519080825280602002602001820160405280156108ee5781602001602082028036833780820191505090505b509050600060035467ffffffffffffffff811115610935577f4e487b7100000000000000000000000000000000000000000000000000000000600052604160045260246000fd5b6040519080825280602002602001820160405280156109635781602001602082028036833780820191505090505b509050600080600190505b6002548111610aed57600073ffffffffffffffffffffffffffffffffffffffff166008600083815260200190815260200160002060009054906101000a900473ffffffffffffffffffffffffffffffffffffffff1673ffffffffffffffffffffffffffffffffffffffff1614610ada5780848381518110610a18577f4e487b7100000000000000000000000000000000000000000000000000000000600052603260045260246000fd5b6020026020010181815250506008600082815260200190815260200160002060009054906101000a900473ffffffffffffffffffffffffffffffffffffffff16838381518110610a91577f4e487b7100000000000000000000000000000000000000000000000000000000600052603260045260246000fd5b602002602001019073ffffffffffffffffffffffffffffffffffffffff16908173ffffffffffffffffffffffffffffffffffffffff16815250508180610ad69061198b565b9250505b8080610ae59061198b565b91505061096e565b508282945094505050509091565b60035481565b60065481565b600460009054906101000a900460ff1681565b60086020528060005260406000206000915054906101000a900473ffffffffffffffffffffffffffffffffffffffff1681565b60025481565b600760009054906101000a900473ffffffffffffffffffffffffffffffffffffffff1681565b60098181548110610b8957600080fd5b906000526020600020016000915090505481565b6060600060035467ffffffffffffffff811115610be3577f4e487b7100000000000000000000000000000000000000000000000000000000600052604160045260246000fd5b604051908082528060200260200182016040528015610c115781602001602082028036833780820191505090505b509050600080600190505b6002548111610cf4573373ffffffffffffffffffffffffffffffffffffffff166008600083815260200190815260200160002060009054906101000a900473ffffffffffffffffffffffffffffffffffffffff1673ffffffffffffffffffffffffffffffffffffffff161415610ce15780838381518110610cc6577f4e487b7100000000000000000000000000000000000000000000000000000000600052603260045260246000fd5b6020026020010181815250508180610cdd9061198b565b9250505b8080610cec9061198b565b915050610c1c565b50819250505090565b60008054906101000a900473ffffffffffffffffffffffffffffffffffffffff1673ffffffffffffffffffffffffffffffffffffffff163373ffffffffffffffffffffffffffffffffffffffff1614610d8b576040517f08c379a0000000000000000000000000000000000000000000000000000000008152600401610d829061171d565b60405180910390fd5b600460009054906101000a900460ff1615610ddb576040517f08c379a0000000000000000000000000000000000000000000000000000000008152600401610dd29061175d565b60405180910390fd5b600060065414610e20576040517f08c379a0000000000000000000000000000000000000000000000000000000008152600401610e179061173d565b60405180910390fd5b600073ffffffffffffffffffffffffffffffffffffffff166008600083815260200190815260200160002060009054906101000a900473ffffffffffffffffffffffffffffffffffffffff1673ffffffffffffffffffffffffffffffffffffffff161415610ec3576040517f08c379a0000000000000000000000000000000000000000000000000000000008152600401610eba906116bd565b60405180910390fd5b806006819055506008600082815260200190815260200160002060009054906101000a900473ffffffffffffffffffffffffffffffffffffffff16600760006101000a81548173ffffffffffffffffffffffffffffffffffffffff021916908373ffffffffffffffffffffffffffffffffffffffff1602179055507fa922b20e4f61e77315db9dd65baa003ba27d2cb5247bc17b9c71d02b94792d5681600760009054906101000a900473ffffffffffffffffffffffffffffffffffffffff16604051610f919291906117d8565b60405180910390a150565b600080600090505b60098054905081101561101a578260098281548110610fec577f4e487b7100000000000000000000000000000000000000000000000000000000600052603260045260246000fd5b90600052602060002001541415611007576001915050611020565b80806110129061198b565b915050610fa4565b50600090505b919050565b6000600980549050905060005b81811015611185578260098281548110611075577f4e487b7100000000000000000000000000000000000000000000000000000000600052603260045260246000fd5b90600052602060002001541415611172576009600183611095919061190f565b815481106110cc577f4e487b7100000000000000000000000000000000000000000000000000000000600052603260045260246000fd5b906000526020600020015460098281548110611111577f4e487b7100000000000000000000000000000000000000000000000000000000600052603260045260246000fd5b90600052602060002001819055506009805480611157577f4e487b7100000000000000000000000000000000000000000000000000000000600052603160045260246000fd5b60019003818190600052602060002001600090559055611185565b808061117d9061198b565b915050611032565b505050565b60008060055460025461119d91906118b5565b905060006064826111ae9190611884565b905060006064836111bf91906119d4565b11156111d45780806111d09061198b565b9150505b809250505090565b6000600460006101000a81548160ff0219169083151502179055507fa922b20e4f61e77315db9dd65baa003ba27d2cb5247bc17b9c71d02b94792d56600654600760009054906101000a900473ffffffffffffffffffffffffffffffffffffffff1660405161124c9291906117d8565b60405180910390a1600060035414156112985760008054906101000a900473ffffffffffffffffffffffffffffffffffffffff1673ffffffffffffffffffffffffffffffffffffffff16ff5b565b6000813590506112a981611c26565b92915050565b6000813590506112be81611c3d565b92915050565b6000602082840312156112d657600080fd5b60006112e48482850161129a565b91505092915050565b6000602082840312156112ff57600080fd5b600061130d848285016112af565b91505092915050565b60006113228383611346565b60208301905092915050565b600061133a83836115b0565b60208301905092915050565b61134f81611943565b82525050565b61135e81611943565b82525050565b600061136f82611821565b6113798185611851565b935061138483611801565b8060005b838110156113b557815161139c8882611316565b97506113a783611837565b925050600181019050611388565b5085935050505092915050565b60006113cd8261182c565b6113d78185611862565b93506113e283611811565b8060005b838110156114135781516113fa888261132e565b975061140583611844565b9250506001810190506113e6565b5085935050505092915050565b61142981611955565b82525050565b600061143c601c83611873565b915061144782611a63565b602082019050919050565b600061145f601383611873565b915061146a82611a8c565b602082019050919050565b6000611482600f83611873565b915061148d82611ab5565b602082019050919050565b60006114a5601383611873565b91506114b082611ade565b602082019050919050565b60006114c8601383611873565b91506114d382611b07565b602082019050919050565b60006114eb601483611873565b91506114f682611b30565b602082019050919050565b600061150e601583611873565b915061151982611b59565b602082019050919050565b6000611531601783611873565b915061153c82611b82565b602082019050919050565b6000611554601083611873565b915061155f82611bab565b602082019050919050565b6000611577601a83611873565b915061158282611bd4565b602082019050919050565b600061159a601683611873565b91506115a582611bfd565b602082019050919050565b6115b981611981565b82525050565b6115c881611981565b82525050565b60006020820190506115e36000830184611355565b92915050565b6000602082019050818103600083015261160381846113c2565b905092915050565b6000604082019050818103600083015261162581856113c2565b905081810360208301526116398184611364565b90509392505050565b60006020820190506116576000830184611420565b92915050565b600060208201905081810360008301526116768161142f565b9050919050565b6000602082019050818103600083015261169681611452565b9050919050565b600060208201905081810360008301526116b681611475565b9050919050565b600060208201905081810360008301526116d681611498565b9050919050565b600060208201905081810360008301526116f6816114bb565b9050919050565b60006020820190508181036000830152611716816114de565b9050919050565b6000602082019050818103600083015261173681611501565b9050919050565b6000602082019050818103600083015261175681611524565b9050919050565b6000602082019050818103600083015261177681611547565b9050919050565b600060208201905081810360008301526117968161156a565b9050919050565b600060208201905081810360008301526117b68161158d565b9050919050565b60006020820190506117d260008301846115bf565b92915050565b60006040820190506117ed60008301856115bf565b6117fa6020830184611355565b9392505050565b6000819050602082019050919050565b6000819050602082019050919050565b600081519050919050565b600081519050919050565b6000602082019050919050565b6000602082019050919050565b600082825260208201905092915050565b600082825260208201905092915050565b600082825260208201905092915050565b600061188f82611981565b915061189a83611981565b9250826118aa576118a9611a34565b5b828204905092915050565b60006118c082611981565b91506118cb83611981565b9250817fffffffffffffffffffffffffffffffffffffffffffffffffffffffffffffffff048311821515161561190457611903611a05565b5b828202905092915050565b600061191a82611981565b915061192583611981565b92508282101561193857611937611a05565b5b828203905092915050565b600061194e82611961565b9050919050565b60008115159050919050565b600073ffffffffffffffffffffffffffffffffffffffff82169050919050565b6000819050919050565b600061199682611981565b91507fffffffffffffffffffffffffffffffffffffffffffffffffffffffffffffffff8214156119c9576119c8611a05565b5b600182019050919050565b60006119df82611981565b91506119ea83611981565b9250826119fa576119f9611a34565b5b828206905092915050565b7f4e487b7100000000000000000000000000000000000000000000000000000000600052601160045260246000fd5b7f4e487b7100000000000000000000000000000000000000000000000000000000600052601260045260246000fd5b7f4e616f20616365697461204574686572206469726574616d656e746500000000600082015250565b7f42696c68657465206a6120636f6d707261646f00000000000000000000000000600082015250565b7f56616c6f7220696e636f727265746f0000000000000000000000000000000000600082015250565b7f42696c68657465206e616f2076656e6469646f00000000000000000000000000600082015250565b7f52696661206e616f206573746120617469766100000000000000000000000000600082015250565b7f46756e63616f206e616f207375706f7274616461000000000000000000000000600082015250565b7f536f6d656e7465206f206f7267616e697a61646f720000000000000000000000600082015250565b7f526573756c7461646f206a61207265676973747261646f000000000000000000600082015250565b7f526966612061696e646120617469766100000000000000000000000000000000600082015250565b7f4e756d65726f2064652062696c6865746520696e76616c69646f000000000000600082015250565b7f42696c68657465206e616f20646973706f6e6976656c00000000000000000000600082015250565b611c2f81611943565b8114611c3a57600080fd5b50565b611c4681611981565b8114611c5157600080fd5b5056fea2646970667358221220558419312935373525a50f86d23057caa91b8841d8fa88d2d00424d79aa88e3b64736f6c63430008040033a2646970667358221220b84ac6a88df5668a4f921cfc2037a364327a0fa3d6e2cfa19d0c0c190327f31264736f6c63430008040033",
  "linkReferences": {},
  "deployedLinkReferences": {}
}